{
  "contractName": "SimpleBank",
  "abi": [
    {
      "anonymous": false,
      "inputs": [
        {
          "indexed": false,
          "internalType": "address",
          "name": "accountAddress",
          "type": "address"
        },
        {
          "indexed": false,
          "internalType": "uint256",
          "name": "value",
          "type": "uint256"
        }
      ],
      "name": "LogDepositMade",
      "type": "event"
    },
    {
      "anonymous": false,
      "inputs": [
        {
          "indexed": false,
          "internalType": "address",
          "name": "accountAddress",
          "type": "address"
        }
      ],
      "name": "LogEnrolled",
      "type": "event"
    },
    {
      "anonymous": false,
      "inputs": [
        {
          "indexed": false,
          "internalType": "address",
          "name": "accountAddress",
          "type": "address"
        },
        {
          "indexed": false,
          "internalType": "uint256",
          "name": "withdrawAmount",
          "type": "uint256"
        },
        {
          "indexed": false,
          "internalType": "uint256",
          "name": "newBalance",
          "type": "uint256"
        }
      ],
      "name": "LogWithdrawal",
      "type": "event"
    },
    {
      "payable": true,
      "stateMutability": "payable",
      "type": "fallback"
    },
    {
      "constant": true,
      "inputs": [
        {
          "internalType": "address",
          "name": "",
          "type": "address"
        }
      ],
      "name": "enrolled",
      "outputs": [
        {
          "internalType": "bool",
          "name": "",
          "type": "bool"
        }
      ],
      "payable": false,
      "stateMutability": "view",
      "type": "function"
    },
    {
      "constant": true,
      "inputs": [],
      "name": "owner",
      "outputs": [
        {
          "internalType": "address",
          "name": "",
          "type": "address"
        }
      ],
      "payable": false,
      "stateMutability": "view",
      "type": "function"
    },
    {
      "constant": true,
      "inputs": [
        {
          "internalType": "address",
          "name": "_accountAddress",
          "type": "address"
        }
      ],
      "name": "getBalance",
      "outputs": [
        {
          "internalType": "uint256",
          "name": "",
          "type": "uint256"
        }
      ],
      "payable": false,
      "stateMutability": "view",
      "type": "function"
    },
    {
      "constant": false,
      "inputs": [],
      "name": "enroll",
      "outputs": [
        {
          "internalType": "bool",
          "name": "",
          "type": "bool"
        }
      ],
      "payable": false,
      "stateMutability": "nonpayable",
      "type": "function"
    },
    {
      "constant": false,
      "inputs": [],
      "name": "deposit",
      "outputs": [
        {
          "internalType": "uint256",
          "name": "",
          "type": "uint256"
        }
      ],
      "payable": true,
      "stateMutability": "payable",
      "type": "function"
    },
    {
      "constant": false,
      "inputs": [
        {
          "internalType": "uint256",
          "name": "withdrawAmount",
          "type": "uint256"
        }
      ],
      "name": "withdraw",
      "outputs": [
        {
          "internalType": "uint256",
          "name": "",
          "type": "uint256"
        }
      ],
      "payable": false,
      "stateMutability": "nonpayable",
      "type": "function"
    }
  ],
  "bytecode": "0x608060405233600260006101000a81548173ffffffffffffffffffffffffffffffffffffffff021916908373ffffffffffffffffffffffffffffffffffffffff16021790555034801561005157600080fd5b506106c4806100616000396000f3fe6080604052600436106100555760003560e01c806310eb0e0e1461005a5780632e1a7d4d146100c35780638da5cb5b14610112578063d0e30db014610169578063e65f2a7e14610187578063f8b2cb4f146101b6575b600080fd5b34801561006657600080fd5b506100a96004803603602081101561007d57600080fd5b81019080803573ffffffffffffffffffffffffffffffffffffffff16906020019092919050505061021b565b604051808215151515815260200191505060405180910390f35b3480156100cf57600080fd5b506100fc600480360360208110156100e657600080fd5b810190808035906020019092919050505061023b565b6040518082815260200191505060405180910390f35b34801561011e57600080fd5b50610127610408565b604051808273ffffffffffffffffffffffffffffffffffffffff1673ffffffffffffffffffffffffffffffffffffffff16815260200191505060405180910390f35b61017161042e565b6040518082815260200191505060405180910390f35b34801561019357600080fd5b5061019c610588565b604051808215151515815260200191505060405180910390f35b3480156101c257600080fd5b50610205600480360360208110156101d957600080fd5b81019080803573ffffffffffffffffffffffffffffffffffffffff169060200190929190505050610647565b6040518082815260200191505060405180910390f35b60016020528060005260406000206000915054906101000a900460ff1681565b6000816000803373ffffffffffffffffffffffffffffffffffffffff1673ffffffffffffffffffffffffffffffffffffffff16815260200190815260200160002054101561028857600080fd5b816000803373ffffffffffffffffffffffffffffffffffffffff1673ffffffffffffffffffffffffffffffffffffffff16815260200190815260200160002054036000803373ffffffffffffffffffffffffffffffffffffffff1673ffffffffffffffffffffffffffffffffffffffff168152602001908152602001600020819055503373ffffffffffffffffffffffffffffffffffffffff166108fc839081150290604051600060405180830381858888f19350505050158015610351573d6000803e3d6000fd5b507ff9226daf630542048a23086c6af599511aac100ec8f532793cc9697d061bed7e33836000803373ffffffffffffffffffffffffffffffffffffffff1673ffffffffffffffffffffffffffffffffffffffff16815260200190815260200160002054604051808473ffffffffffffffffffffffffffffffffffffffff1673ffffffffffffffffffffffffffffffffffffffff168152602001838152602001828152602001935050505060405180910390a1919050565b600260009054906101000a900473ffffffffffffffffffffffffffffffffffffffff1681565b600060011515600160003373ffffffffffffffffffffffffffffffffffffffff1673ffffffffffffffffffffffffffffffffffffffff16815260200190815260200160002060009054906101000a900460ff1615151461048d57600080fd5b346000803373ffffffffffffffffffffffffffffffffffffffff1673ffffffffffffffffffffffffffffffffffffffff168152602001908152602001600020600082825401925050819055507fa8126f7572bb1fdeae5b5aa9ec126438b91f658a07873f009d041ae690f3a1933334604051808373ffffffffffffffffffffffffffffffffffffffff1673ffffffffffffffffffffffffffffffffffffffff1681526020018281526020019250505060405180910390a16000803373ffffffffffffffffffffffffffffffffffffffff1673ffffffffffffffffffffffffffffffffffffffff16815260200190815260200160002054905090565b600060018060003373ffffffffffffffffffffffffffffffffffffffff1673ffffffffffffffffffffffffffffffffffffffff16815260200190815260200160002060006101000a81548160ff0219169083151502179055507f990c442e6adb818b8fa7db3cf1023decd07f7b66e5306928c7ed527d974192bb33604051808273ffffffffffffffffffffffffffffffffffffffff1673ffffffffffffffffffffffffffffffffffffffff16815260200191505060405180910390a190565b60008060008373ffffffffffffffffffffffffffffffffffffffff1673ffffffffffffffffffffffffffffffffffffffff16815260200190815260200160002054905091905056fea265627a7a7231582032d87ad98e55150fb2c1c1595d867afe834d43101a0175b02a19ad95fb83e91264736f6c63430005100032",
  "source": "/*\n * This exercise has been updated to use Solidity version 0.8.5\n * See the latest Solidity updates at\n * https://solidity.readthedocs.io/en/latest/080-breaking-changes.html\n */\n// SPDX-License-Identifier: MIT\npragma solidity >=0.5.16 <0.9.0;\n\ncontract SimpleBank {\n\n    /* State variables\n     */\n    \n    \n    // Fill in the visibility keyword. \n    // Hint: We want to protect our users balance from other contracts\n    mapping (address => uint) private balances ;\n    \n    // Fill in the visibility keyword\n    // Hint: We want to create a getter function and allow contracts to be able\n    //       to see if a user is enrolled.\n    mapping (address => bool) public enrolled;\n\n    // Let's make sure everyone knows who owns the bank, yes, fill in the\n    // appropriate visilibility keyword\n    address public owner = msg.sender;\n    \n    /* Events - publicize actions to external listeners\n     */\n    \n    // Add an argument for this event, an accountAddress\n    event LogEnrolled(address accountAddress);\n\n    // Add 2 arguments for this event, an accountAddress and an amount\n    event LogDepositMade(address accountAddress, uint value);\n\n    // Create an event called LogWithdrawal\n    // Hint: it should take 3 arguments: an accountAddress, withdrawAmount and a newBalance \n    event LogWithdrawal(address accountAddress, uint withdrawAmount, uint newBalance);\n\n    /* Functions\n     */\n\n    // Fallback function - Called if other functions don't match call or\n    // sent ether without data\n    // Typically, called when invalid data is sent\n    // Added so ether sent to this contract is reverted if the contract fails\n    // otherwise, the sender's money is transferred to contract\n    function () external payable {\n        revert();\n    }\n\n    /// @notice Get balance\n    /// @return The balance of the user\n    function getBalance(address _accountAddress) public view returns (uint) {\n      \n      return(balances[_accountAddress]);\n\n    }\n\n    /// @notice Enroll a customer with the bank\n    /// @return The users enrolled status\n    // Emit the appropriate event\n    function enroll() public returns (bool){\n      enrolled[msg.sender]=true;\n      emit LogEnrolled(msg.sender);\n    }\n\n    /// @notice Deposit ether into bank\n    /// @return The balance of the user after the deposit is made\n    function deposit() public payable returns (uint) {\n\n      require(enrolled[msg.sender]==true);\n      balances[msg.sender] += msg.value;\n      emit LogDepositMade(msg.sender, msg.value);\n      return(balances[msg.sender]);\n\n    }\n\n    /// @notice Withdraw ether from bank\n    /// @dev This does not return any excess ether sent to it\n    /// @param withdrawAmount amount you want to withdraw\n    /// @return The balance remaining for the user\n    function withdraw(uint withdrawAmount) public returns (uint) {\n      // If the sender's balance is at least the amount they want to withdraw,\n      // Subtract the amount from the sender's balance, and try to send that amount of ether\n      // to the user attempting to withdraw. \n      // return the user's balance.\n\n      // 1. Use a require expression to guard/ensure sender has enough funds\n      require(balances[msg.sender]>= withdrawAmount);\n\n\n      // 2. Transfer Eth to the sender and decrement the withdrawal amount from\n      //    sender's balance\n      balances[msg.sender] = balances[msg.sender] - withdrawAmount;\n      msg.sender.transfer(withdrawAmount);\n      \n\n      // 3. Emit the appropriate event for this message\n      emit LogWithdrawal(msg.sender, withdrawAmount, balances[msg.sender]);\n    }\n}\n",
  "sourcePath": "/home/joe/Code/Ethereum_Projects/simple-bank-exercise-jmcook1186/contracts/SimpleBank.sol",
  "compiler": {
    "name": "solc",
    "version": "0.5.16+commit.9c3226ce.Emscripten.clang"
  },
  "schemaVersion": "3.3.4",
  "updatedAt": "2021-09-08T10:58:20.311Z",
  "devdoc": {
    "methods": {
      "deposit()": {
        "return": "The balance of the user after the deposit is made"
      },
      "enroll()": {
        "return": "The users enrolled status"
      },
      "getBalance(address)": {
        "return": "The balance of the user"
      },
      "withdraw(uint256)": {
        "details": "This does not return any excess ether sent to it",
        "params": {
          "withdrawAmount": "amount you want to withdraw"
        },
        "return": "The balance remaining for the user"
      }
    }
  },
  "userdoc": {
    "methods": {
      "deposit()": {
        "notice": "Deposit ether into bank"
      },
      "enroll()": {
        "notice": "Enroll a customer with the bank"
      },
      "getBalance(address)": {
        "notice": "Get balance"
      },
      "withdraw(uint256)": {
        "notice": "Withdraw ether from bank"
      }
    }
  }
}